{
  "contractName": "GestionPuntos",
  "abi": [
    {
      "inputs": [
        {
          "name": "_profesor",
          "type": "address"
        },
        {
          "name": "_curso",
          "type": "uint256"
        },
        {
          "name": "_ttptadd",
          "type": "address"
        }
      ],
      "payable": false,
      "stateMutability": "nonpayable",
      "type": "constructor"
    },
    {
      "constant": false,
      "inputs": [
        {
          "name": "_matricula",
          "type": "uint256"
        },
        {
          "name": "_nombreCompleto",
          "type": "string"
        },
        {
          "name": "_campus",
          "type": "string"
        },
        {
          "name": "_grupo",
          "type": "string"
        },
        {
          "name": "_ttpTokenAddress",
          "type": "address"
        }
      ],
      "name": "registrarAlumno",
      "outputs": [
        {
          "name": "ok",
          "type": "bool"
        }
      ],
      "payable": true,
      "stateMutability": "payable",
      "type": "function"
    },
    {
      "constant": false,
      "inputs": [
        {
          "name": "_ttpTokenAddress",
          "type": "address"
        },
        {
          "name": "_puntos",
          "type": "int256"
        },
        {
          "name": "opcion",
          "type": "uint256"
        },
        {
          "name": "_mensaje",
          "type": "bytes32"
        }
      ],
      "name": "modificaPuntos",
      "outputs": [
        {
          "name": "saldo",
          "type": "int256"
        }
      ],
      "payable": false,
      "stateMutability": "nonpayable",
      "type": "function"
    },
    {
      "constant": true,
      "inputs": [
        {
          "name": "_address",
          "type": "address"
        }
      ],
      "name": "getPuntos",
      "outputs": [
        {
          "name": "puntos",
          "type": "uint256"
        }
      ],
      "payable": false,
      "stateMutability": "view",
      "type": "function"
    },
    {
      "constant": false,
      "inputs": [
        {
          "name": "_curso",
          "type": "uint256"
        }
      ],
      "name": "modificaCurso",
      "outputs": [
        {
          "name": "ok",
          "type": "bool"
        }
      ],
      "payable": false,
      "stateMutability": "nonpayable",
      "type": "function"
    },
    {
      "constant": true,
      "inputs": [],
      "name": "getCurso",
      "outputs": [
        {
          "name": "thecurso",
          "type": "uint256"
        }
      ],
      "payable": false,
      "stateMutability": "view",
      "type": "function"
    },
    {
      "constant": true,
      "inputs": [],
      "name": "getProfesor",
      "outputs": [
        {
          "name": "theprofesor",
          "type": "address"
        }
      ],
      "payable": false,
      "stateMutability": "view",
      "type": "function"
    },
    {
      "constant": true,
      "inputs": [
        {
          "name": "_address",
          "type": "address"
        }
      ],
      "name": "getTransactions",
      "outputs": [
        {
          "name": "mRegistrosLs",
          "type": "bytes32[]"
        }
      ],
      "payable": false,
      "stateMutability": "view",
      "type": "function"
    }
  ],
  "bytecode": "0x608060405234801561001057600080fd5b506040516060806111798339810180604052606081101561003057600080fd5b81019080805190602001909291908051906020019092919080519060200190929190505050826000806101000a81548173ffffffffffffffffffffffffffffffffffffffff021916908373ffffffffffffffffffffffffffffffffffffffff1602179055508160018190555080600260006101000a81548173ffffffffffffffffffffffffffffffffffffffff021916908373ffffffffffffffffffffffffffffffffffffffff16021790555050505061108a806100ef6000396000f3fe608060405260043610610083576000357c0100000000000000000000000000000000000000000000000000000000900463ffffffff1680630660c58c146100885780630d126bc4146102b35780630f8cda20146102de578063159621d2146103845780635954f0a9146103db578063a2ebd9f414610440578063c35ac080146104c3575b600080fd5b610299600480360360a081101561009e57600080fd5b8101908080359060200190929190803590602001906401000000008111156100c557600080fd5b8201836020820111156100d757600080fd5b803590602001918460018302840111640100000000831117156100f957600080fd5b91908080601f016020809104026020016040519081016040528093929190818152602001838380828437600081840152601f19601f8201169050808301925050505050505091929192908035906020019064010000000081111561015c57600080fd5b82018360208201111561016e57600080fd5b8035906020019184600183028401116401000000008311171561019057600080fd5b91908080601f016020809104026020016040519081016040528093929190818152602001838380828437600081840152601f19601f820116905080830192505050505050509192919290803590602001906401000000008111156101f357600080fd5b82018360208201111561020557600080fd5b8035906020019184600183028401116401000000008311171561022757600080fd5b91908080601f016020809104026020016040519081016040528093929190818152602001838380828437600081840152601f19601f820116905080830192505050505050509192919290803573ffffffffffffffffffffffffffffffffffffffff169060200190929190505050610516565b604051808215151515815260200191505060405180910390f35b3480156102bf57600080fd5b506102c8610862565b6040518082815260200191505060405180910390f35b3480156102ea57600080fd5b5061032d6004803603602081101561030157600080fd5b81019080803573ffffffffffffffffffffffffffffffffffffffff16906020019092919050505061086c565b6040518080602001828103825283818151815260200191508051906020019060200280838360005b83811015610370578082015181840152602081019050610355565b505050509050019250505060405180910390f35b34801561039057600080fd5b50610399610908565b604051808273ffffffffffffffffffffffffffffffffffffffff1673ffffffffffffffffffffffffffffffffffffffff16815260200191505060405180910390f35b3480156103e757600080fd5b5061042a600480360360208110156103fe57600080fd5b81019080803573ffffffffffffffffffffffffffffffffffffffff169060200190929190505050610931565b6040518082815260200191505060405180910390f35b34801561044c57600080fd5b506104ad6004803603608081101561046357600080fd5b81019080803573ffffffffffffffffffffffffffffffffffffffff169060200190929190803590602001909291908035906020019092919080359060200190929190505050610a30565b6040518082815260200191505060405180910390f35b3480156104cf57600080fd5b506104fc600480360360208110156104e657600080fd5b8101908080359060200190929190505050610ebd565b604051808215151515815260200191505060405180910390f35b60008060009054906101000a900473ffffffffffffffffffffffffffffffffffffffff1673ffffffffffffffffffffffffffffffffffffffff163373ffffffffffffffffffffffffffffffffffffffff16141515610602576040517f08c379a000000000000000000000000000000000000000000000000000000000815260040180806020018281038252603b8152602001807f536f6c6f20656c2070726f6665736f72206465206573746520637572736f207081526020017f75656465206d6f64696669636172206c6f732076616c6f7265732e000000000081525060400191505060405180910390fd5b60a0604051908101604052808781526020018681526020018581526020018481526020018373ffffffffffffffffffffffffffffffffffffffff1681525060036000888152602001908152602001600020600082015181600001556020820151816001019080519060200190610679929190610fb9565b506040820151816002019080519060200190610696929190610fb9565b5060608201518160030190805190602001906106b3929190610fb9565b5060808201518160040160006101000a81548173ffffffffffffffffffffffffffffffffffffffff021916908373ffffffffffffffffffffffffffffffffffffffff160217905550905050600260009054906101000a900473ffffffffffffffffffffffffffffffffffffffff1673ffffffffffffffffffffffffffffffffffffffff166323b872dd6000809054906101000a900473ffffffffffffffffffffffffffffffffffffffff168460646040518463ffffffff167c0100000000000000000000000000000000000000000000000000000000028152600401808473ffffffffffffffffffffffffffffffffffffffff1673ffffffffffffffffffffffffffffffffffffffff1681526020018373ffffffffffffffffffffffffffffffffffffffff1673ffffffffffffffffffffffffffffffffffffffff1681526020018281526020019350505050602060405180830381600087803b15801561081957600080fd5b505af115801561082d573d6000803e3d6000fd5b505050506040513d602081101561084357600080fd5b8101908080519060200190929190505050506001905095945050505050565b6000600154905090565b606080600460008473ffffffffffffffffffffffffffffffffffffffff1673ffffffffffffffffffffffffffffffffffffffff1681526020019081526020016000208054806020026020016040519081016040528092919081815260200182805480156108f857602002820191906000526020600020905b8154815260200190600101908083116108e4575b5050505050905080915050919050565b60008060009054906101000a900473ffffffffffffffffffffffffffffffffffffffff16905090565b6000600260009054906101000a900473ffffffffffffffffffffffffffffffffffffffff1673ffffffffffffffffffffffffffffffffffffffff166370a08231836040518263ffffffff167c0100000000000000000000000000000000000000000000000000000000028152600401808273ffffffffffffffffffffffffffffffffffffffff1673ffffffffffffffffffffffffffffffffffffffff16815260200191505060206040518083038186803b1580156109ee57600080fd5b505afa158015610a02573d6000803e3d6000fd5b505050506040513d6020811015610a1857600080fd5b81019080805190602001909291905050509050919050565b60008060009054906101000a900473ffffffffffffffffffffffffffffffffffffffff1673ffffffffffffffffffffffffffffffffffffffff163373ffffffffffffffffffffffffffffffffffffffff16141515610b1c576040517f08c379a000000000000000000000000000000000000000000000000000000000815260040180806020018281038252603b8152602001807f536f6c6f20656c2070726f6665736f72206465206573746520637572736f207081526020017f75656465206d6f64696669636172206c6f732076616c6f7265732e000000000081525060400191505060405180910390fd5b6000831415610c92576000849050600081111515610b3657fe5b600260009054906101000a900473ffffffffffffffffffffffffffffffffffffffff1673ffffffffffffffffffffffffffffffffffffffff166323b872dd876000809054906101000a900473ffffffffffffffffffffffffffffffffffffffff16846040518463ffffffff167c0100000000000000000000000000000000000000000000000000000000028152600401808473ffffffffffffffffffffffffffffffffffffffff1673ffffffffffffffffffffffffffffffffffffffff1681526020018373ffffffffffffffffffffffffffffffffffffffff1673ffffffffffffffffffffffffffffffffffffffff1681526020018281526020019350505050602060405180830381600087803b158015610c5057600080fd5b505af1158015610c64573d6000803e3d6000fd5b505050506040513d6020811015610c7a57600080fd5b81019080805190602001909291905050505050610dfb565b6000849050600081111515610ca357fe5b600260009054906101000a900473ffffffffffffffffffffffffffffffffffffffff1673ffffffffffffffffffffffffffffffffffffffff166323b872dd6000809054906101000a900473ffffffffffffffffffffffffffffffffffffffff1688846040518463ffffffff167c0100000000000000000000000000000000000000000000000000000000028152600401808473ffffffffffffffffffffffffffffffffffffffff1673ffffffffffffffffffffffffffffffffffffffff1681526020018373ffffffffffffffffffffffffffffffffffffffff1673ffffffffffffffffffffffffffffffffffffffff1681526020018281526020019350505050602060405180830381600087803b158015610dbd57600080fd5b505af1158015610dd1573d6000803e3d6000fd5b505050506040513d6020811015610de757600080fd5b810190808051906020019092919050505050505b6000600460008773ffffffffffffffffffffffffffffffffffffffff1673ffffffffffffffffffffffffffffffffffffffff1681526020019081526020016000209050808390806001815401808255809150509060018203906000526020600020016000909192909190915055508080549050600560008873ffffffffffffffffffffffffffffffffffffffff1673ffffffffffffffffffffffffffffffffffffffff1681526020019081526020016000208190555084915050949350505050565b60008060009054906101000a900473ffffffffffffffffffffffffffffffffffffffff1673ffffffffffffffffffffffffffffffffffffffff163373ffffffffffffffffffffffffffffffffffffffff16141515610fa9576040517f08c379a000000000000000000000000000000000000000000000000000000000815260040180806020018281038252603b8152602001807f536f6c6f20656c2070726f6665736f72206465206573746520637572736f207081526020017f75656465206d6f64696669636172206c6f732076616c6f7265732e000000000081525060400191505060405180910390fd5b8160018190555060019050919050565b828054600181600116156101000203166002900490600052602060002090601f016020900481019282601f10610ffa57805160ff1916838001178555611028565b82800160010185558215611028579182015b8281111561102757825182559160200191906001019061100c565b5b5090506110359190611039565b5090565b61105b91905b8082111561105757600081600090555060010161103f565b5090565b9056fea165627a7a723058200d021788b9fe9958524ac0c424ffd0826391eaddd61db5f25b7e18b1b2af8f440029",
  "source": "pragma solidity ^0.5.0;\n\nimport \"./TTPToken.sol\"; \n\ncontract GestionPuntos{\n    \n    address profesor;\n    uint curso;\n    TTPToken ttp;\n    \n    struct Alumno{\n        uint matricula;\n        string nombreCompleto;\n        string campus;\n        string grupo;\n        address ttpTokenAddress;\n    } \n\n    struct transaccionAlumno{\n        string motivo;\n        uint tokens;\n    }\n    \n    modifier soloProfesor {\n        require(\n            msg.sender == profesor,\n            \"Solo el profesor de este curso puede modificar los valores.\"\n        );\n        _;\n    }\n    \n    mapping(uint => Alumno) mRegistros;\n    mapping(address => bytes32[]) mRegistrosT;\n    mapping(address => uint) mRegistrosI;\n\n    //Constructor, se asigna el profesor y el curso al que pertenece este smart contract\n    constructor(address _profesor, uint _curso, address _ttptadd) public{\n        profesor = _profesor;\n        curso = _curso;\n        ttp = TTPToken(_ttptadd);\n    }\n    \n    //Funci贸n para el registro de los alumnos\n    //Puede ser llamada s贸lo por el address del profesor para registro de alumnos\n    function registrarAlumno(\n        uint _matricula, \n        string memory _nombreCompleto,\n        string memory _campus,\n        string memory _grupo,\n        address _ttpTokenAddress\n        ) public payable soloProfesor returns (bool ok){\n        \n        //Al registrar a un alumno con su matricula se le asignan 100 tokens\n        mRegistros[_matricula] = Alumno(_matricula,_nombreCompleto,_campus,_grupo,_ttpTokenAddress);\n        \n        ttp.transferFrom(profesor, _ttpTokenAddress, 100);\n        \n        return true;\n    }\n    \n    //Funci贸n modificaPuntos para sumar o restar puntos a los alumnos\n    //Puede ser llamada s贸lo por quien haya registrado el smart contract \n    //Que debe ser el address registrado como profesor\n    function modificaPuntos(\n        //uint _matricula, \n        address _ttpTokenAddress,\n        int _puntos,\n        uint opcion,\n        bytes32 _mensaje\n        ) public soloProfesor returns (int saldo){\n        \n        //validar si es resta\n        if(opcion == 0){\n            uint tokens = uint(_puntos);\n            assert(tokens > 0);\n\n            ttp.transferFrom(_ttpTokenAddress, profesor, tokens);\n\n        }\n        else{\n            //suma\n            uint tokens = uint(_puntos);\n            assert(tokens > 0);\n            ttp.transferFrom(profesor, _ttpTokenAddress, tokens);\n        }\n\n        //Registra el mensaje\n        bytes32[] storage txsls = mRegistrosT[_ttpTokenAddress];\n        txsls.push(_mensaje);\n        mRegistrosI[_ttpTokenAddress] = txsls.length;\n        \n        return _puntos;\n    }\n    \n    function getPuntos(address _address) public view returns(uint256 puntos){\n        return ttp.balanceOf(_address);\n    }\n    \n    function modificaCurso(\n        uint _curso) public soloProfesor returns (bool ok){\n        \n        curso = _curso;\n        \n        return true;\n    }\n       \n    function getCurso() public view returns(uint thecurso){ \n        return curso;\n    }  \n    \n    function getProfesor() public view returns(address theprofesor){\n        return profesor;\n    }\n\n    function getTransactions(address _address) public view returns(bytes32[] memory mRegistrosLs){\n        bytes32[] memory txsls = mRegistrosT[_address];\n        \n        return txsls;\n    }\n    \n}",
  "sourcePath": "/Users/garvazsof/Projects/TTPToken/contracts/GestionPuntos.sol",
  "compiler": {
    "name": "solc",
    "version": "0.5.0+commit.1d4f565a.Emscripten.clang"
  },
  "schemaVersion": "3.0.1",
  "updatedAt": "2019-01-17T17:23:18.799Z",
  "devdoc": {
    "methods": {}
  },
  "userdoc": {
    "methods": {}
  }
}