{
  "contractName": "TokenZendR",
  "abi": [
    {
      "constant": true,
      "inputs": [],
      "name": "ERC20Interface",
      "outputs": [
        {
          "name": "",
          "type": "address"
        }
      ],
      "payable": false,
      "stateMutability": "view",
      "type": "function"
    },
    {
      "constant": false,
      "inputs": [],
      "name": "unpause",
      "outputs": [],
      "payable": false,
      "stateMutability": "nonpayable",
      "type": "function"
    },
    {
      "constant": true,
      "inputs": [
        {
          "name": "account",
          "type": "address"
        }
      ],
      "name": "isPauser",
      "outputs": [
        {
          "name": "",
          "type": "bool"
        }
      ],
      "payable": false,
      "stateMutability": "view",
      "type": "function"
    },
    {
      "constant": true,
      "inputs": [],
      "name": "paused",
      "outputs": [
        {
          "name": "",
          "type": "bool"
        }
      ],
      "payable": false,
      "stateMutability": "view",
      "type": "function"
    },
    {
      "constant": false,
      "inputs": [],
      "name": "renouncePauser",
      "outputs": [],
      "payable": false,
      "stateMutability": "nonpayable",
      "type": "function"
    },
    {
      "constant": false,
      "inputs": [],
      "name": "renounceOwnership",
      "outputs": [],
      "payable": false,
      "stateMutability": "nonpayable",
      "type": "function"
    },
    {
      "constant": false,
      "inputs": [
        {
          "name": "account",
          "type": "address"
        }
      ],
      "name": "addPauser",
      "outputs": [],
      "payable": false,
      "stateMutability": "nonpayable",
      "type": "function"
    },
    {
      "constant": false,
      "inputs": [],
      "name": "pause",
      "outputs": [],
      "payable": false,
      "stateMutability": "nonpayable",
      "type": "function"
    },
    {
      "constant": true,
      "inputs": [],
      "name": "owner",
      "outputs": [
        {
          "name": "",
          "type": "address"
        }
      ],
      "payable": false,
      "stateMutability": "view",
      "type": "function"
    },
    {
      "constant": true,
      "inputs": [],
      "name": "isOwner",
      "outputs": [
        {
          "name": "",
          "type": "bool"
        }
      ],
      "payable": false,
      "stateMutability": "view",
      "type": "function"
    },
    {
      "constant": true,
      "inputs": [
        {
          "name": "",
          "type": "bytes32"
        }
      ],
      "name": "tokens",
      "outputs": [
        {
          "name": "",
          "type": "address"
        }
      ],
      "payable": false,
      "stateMutability": "view",
      "type": "function"
    },
    {
      "constant": true,
      "inputs": [
        {
          "name": "",
          "type": "uint256"
        }
      ],
      "name": "transactions",
      "outputs": [
        {
          "name": "contract_",
          "type": "address"
        },
        {
          "name": "to_",
          "type": "address"
        },
        {
          "name": "amount_",
          "type": "uint256"
        },
        {
          "name": "failed_",
          "type": "bool"
        }
      ],
      "payable": false,
      "stateMutability": "view",
      "type": "function"
    },
    {
      "constant": true,
      "inputs": [],
      "name": "_owner",
      "outputs": [
        {
          "name": "",
          "type": "address"
        }
      ],
      "payable": false,
      "stateMutability": "view",
      "type": "function"
    },
    {
      "constant": true,
      "inputs": [
        {
          "name": "",
          "type": "address"
        },
        {
          "name": "",
          "type": "uint256"
        }
      ],
      "name": "transactionIndexesToSender",
      "outputs": [
        {
          "name": "",
          "type": "uint256"
        }
      ],
      "payable": false,
      "stateMutability": "view",
      "type": "function"
    },
    {
      "constant": false,
      "inputs": [
        {
          "name": "newOwner",
          "type": "address"
        }
      ],
      "name": "transferOwnership",
      "outputs": [],
      "payable": false,
      "stateMutability": "nonpayable",
      "type": "function"
    },
    {
      "inputs": [],
      "payable": false,
      "stateMutability": "nonpayable",
      "type": "constructor"
    },
    {
      "payable": true,
      "stateMutability": "payable",
      "type": "fallback"
    },
    {
      "anonymous": false,
      "inputs": [
        {
          "indexed": true,
          "name": "from_",
          "type": "address"
        },
        {
          "indexed": true,
          "name": "to_",
          "type": "address"
        },
        {
          "indexed": false,
          "name": "amount_",
          "type": "uint256"
        }
      ],
      "name": "TransferSuccessful",
      "type": "event"
    },
    {
      "anonymous": false,
      "inputs": [
        {
          "indexed": true,
          "name": "from_",
          "type": "address"
        },
        {
          "indexed": true,
          "name": "to_",
          "type": "address"
        },
        {
          "indexed": false,
          "name": "amount_",
          "type": "uint256"
        }
      ],
      "name": "TransferFailed",
      "type": "event"
    },
    {
      "anonymous": false,
      "inputs": [
        {
          "indexed": false,
          "name": "account",
          "type": "address"
        }
      ],
      "name": "Paused",
      "type": "event"
    },
    {
      "anonymous": false,
      "inputs": [
        {
          "indexed": false,
          "name": "account",
          "type": "address"
        }
      ],
      "name": "Unpaused",
      "type": "event"
    },
    {
      "anonymous": false,
      "inputs": [
        {
          "indexed": true,
          "name": "account",
          "type": "address"
        }
      ],
      "name": "PauserAdded",
      "type": "event"
    },
    {
      "anonymous": false,
      "inputs": [
        {
          "indexed": true,
          "name": "account",
          "type": "address"
        }
      ],
      "name": "PauserRemoved",
      "type": "event"
    },
    {
      "anonymous": false,
      "inputs": [
        {
          "indexed": true,
          "name": "previousOwner",
          "type": "address"
        },
        {
          "indexed": true,
          "name": "newOwner",
          "type": "address"
        }
      ],
      "name": "OwnershipTransferred",
      "type": "event"
    },
    {
      "constant": false,
      "inputs": [
        {
          "name": "symbol_",
          "type": "bytes32"
        },
        {
          "name": "address_",
          "type": "address"
        }
      ],
      "name": "addNewToken",
      "outputs": [
        {
          "name": "",
          "type": "bool"
        }
      ],
      "payable": false,
      "stateMutability": "nonpayable",
      "type": "function"
    },
    {
      "constant": false,
      "inputs": [
        {
          "name": "symbol_",
          "type": "bytes32"
        }
      ],
      "name": "removeToken",
      "outputs": [
        {
          "name": "",
          "type": "bool"
        }
      ],
      "payable": false,
      "stateMutability": "nonpayable",
      "type": "function"
    },
    {
      "constant": false,
      "inputs": [
        {
          "name": "symbol_",
          "type": "bytes32"
        },
        {
          "name": "to_",
          "type": "address"
        },
        {
          "name": "amount_",
          "type": "uint256"
        }
      ],
      "name": "transferTokens",
      "outputs": [],
      "payable": false,
      "stateMutability": "nonpayable",
      "type": "function"
    },
    {
      "constant": false,
      "inputs": [
        {
          "name": "beneficiary",
          "type": "address"
        }
      ],
      "name": "withdraw",
      "outputs": [],
      "payable": true,
      "stateMutability": "payable",
      "type": "function"
    }
  ],
  "bytecode": "0x60806040523480156200001157600080fd5b50336000806101000a81548173ffffffffffffffffffffffffffffffffffffffff021916908373ffffffffffffffffffffffffffffffffffffffff1602179055506000809054906101000a900473ffffffffffffffffffffffffffffffffffffffff1673ffffffffffffffffffffffffffffffffffffffff16600073ffffffffffffffffffffffffffffffffffffffff167f8be0079c531659141344cd1fd0a4f28419497f9722a3daafe3b4186f6b6457e060405160405180910390a3620000e8336200014a640100000000026401000000009004565b6000600260006101000a81548160ff02191690831515021790555033600560006101000a81548173ffffffffffffffffffffffffffffffffffffffff021916908373ffffffffffffffffffffffffffffffffffffffff1602179055506200030c565b6200016e816001620001b4640100000000026200165e179091906401000000009004565b8073ffffffffffffffffffffffffffffffffffffffff167f6719d08c1888103bea251a4ed56406bd0c3e69723c8a1686e017e7bbe159b6f860405160405180910390a250565b600073ffffffffffffffffffffffffffffffffffffffff168173ffffffffffffffffffffffffffffffffffffffff1614151515620001f157600080fd5b6200020c828262000277640100000000026401000000009004565b1515156200021957600080fd5b60018260000160008373ffffffffffffffffffffffffffffffffffffffff1673ffffffffffffffffffffffffffffffffffffffff16815260200190815260200160002060006101000a81548160ff0219169083151502179055505050565b60008073ffffffffffffffffffffffffffffffffffffffff168273ffffffffffffffffffffffffffffffffffffffff1614151515620002b557600080fd5b8260000160008373ffffffffffffffffffffffffffffffffffffffff1673ffffffffffffffffffffffffffffffffffffffff16815260200190815260200160002060009054906101000a900460ff16905092915050565b61173a806200031c6000396000f3fe608060405260043610610107576000357c0100000000000000000000000000000000000000000000000000000000900463ffffffff1680631bbc4b83146101095780631f9988c914610160578063224e7462146101c55780633f4ba83a1461021857806346fbf68e1461022f57806351cff8d9146102985780635c975abb146102dc5780636ef8d66d1461030b578063715018a61461032257806382dc1ec4146103395780638456cb591461038a5780638da5cb5b146103a15780638f32d59b146103f8578063904194a3146104275780639ace38c2146104a2578063b082443b14610562578063b2bdfa7b146105d5578063c47964371461062c578063f2fde38b1461069b575b005b34801561011557600080fd5b5061011e6106ec565b604051808273ffffffffffffffffffffffffffffffffffffffff1673ffffffffffffffffffffffffffffffffffffffff16815260200191505060405180910390f35b34801561016c57600080fd5b506101c36004803603606081101561018357600080fd5b8101908080359060200190929190803573ffffffffffffffffffffffffffffffffffffffff16906020019092919080359060200190929190505050610712565b005b3480156101d157600080fd5b506101fe600480360360208110156101e857600080fd5b8101908080359060200190929190505050610dd4565b604051808215151515815260200191505060405180910390f35b34801561022457600080fd5b5061022d610e28565b005b34801561023b57600080fd5b5061027e6004803603602081101561025257600080fd5b81019080803573ffffffffffffffffffffffffffffffffffffffff169060200190929190505050610ed7565b604051808215151515815260200191505060405180910390f35b6102da600480360360208110156102ae57600080fd5b81019080803573ffffffffffffffffffffffffffffffffffffffff169060200190929190505050610ef4565b005b3480156102e857600080fd5b506102f1610f84565b604051808215151515815260200191505060405180910390f35b34801561031757600080fd5b50610320610f9b565b005b34801561032e57600080fd5b50610337610fa6565b005b34801561034557600080fd5b506103886004803603602081101561035c57600080fd5b81019080803573ffffffffffffffffffffffffffffffffffffffff169060200190929190505050611078565b005b34801561039657600080fd5b5061039f611098565b005b3480156103ad57600080fd5b506103b6611148565b604051808273ffffffffffffffffffffffffffffffffffffffff1673ffffffffffffffffffffffffffffffffffffffff16815260200191505060405180910390f35b34801561040457600080fd5b5061040d611171565b604051808215151515815260200191505060405180910390f35b34801561043357600080fd5b506104606004803603602081101561044a57600080fd5b81019080803590602001909291905050506111c8565b604051808273ffffffffffffffffffffffffffffffffffffffff1673ffffffffffffffffffffffffffffffffffffffff16815260200191505060405180910390f35b3480156104ae57600080fd5b506104db600480360360208110156104c557600080fd5b81019080803590602001909291905050506111fb565b604051808573ffffffffffffffffffffffffffffffffffffffff1673ffffffffffffffffffffffffffffffffffffffff1681526020018473ffffffffffffffffffffffffffffffffffffffff1673ffffffffffffffffffffffffffffffffffffffff1681526020018381526020018215151515815260200194505050505060405180910390f35b34801561056e57600080fd5b506105bb6004803603604081101561058557600080fd5b8101908080359060200190929190803573ffffffffffffffffffffffffffffffffffffffff169060200190929190505050611287565b604051808215151515815260200191505060405180910390f35b3480156105e157600080fd5b506105ea6112f8565b604051808273ffffffffffffffffffffffffffffffffffffffff1673ffffffffffffffffffffffffffffffffffffffff16815260200191505060405180910390f35b34801561063857600080fd5b506106856004803603604081101561064f57600080fd5b81019080803573ffffffffffffffffffffffffffffffffffffffff1690602001909291908035906020019092919050505061131e565b6040518082815260200191505060405180910390f35b3480156106a757600080fd5b506106ea600480360360208110156106be57600080fd5b81019080803573ffffffffffffffffffffffffffffffffffffffff16906020019092919050505061134e565b005b600760009054906101000a900473ffffffffffffffffffffffffffffffffffffffff1681565b600260009054906101000a900460ff1615151561072e57600080fd5b6000811115156107cc576040517f08c379a00000000000000000000000000000000000000000000000000000000081526004018080602001828103825260298152602001807f44656265207472616e73666572697220756e612063616e7469646164206d617981526020017f6f722061206365726f000000000000000000000000000000000000000000000081525060400191505060405180910390fd5b60006006600085815260200190815260200160002060009054906101000a900473ffffffffffffffffffffffffffffffffffffffff169050600033905081600760006101000a81548173ffffffffffffffffffffffffffffffffffffffff021916908373ffffffffffffffffffffffffffffffffffffffff160217905550600060046080604051908101604052808573ffffffffffffffffffffffffffffffffffffffff1681526020018773ffffffffffffffffffffffffffffffffffffffff168152602001868152602001600115158152509080600181540180825580915050906001820390600052602060002090600402016000909192909190915060008201518160000160006101000a81548173ffffffffffffffffffffffffffffffffffffffff021916908373ffffffffffffffffffffffffffffffffffffffff16021790555060208201518160010160006101000a81548173ffffffffffffffffffffffffffffffffffffffff021916908373ffffffffffffffffffffffffffffffffffffffff1602179055506040820151816002015560608201518160030160006101000a81548160ff02191690831515021790555050509050600360008373ffffffffffffffffffffffffffffffffffffffff1673ffffffffffffffffffffffffffffffffffffffff168152602001908152602001600020600182039080600181540180825580915050906001820390600052602060002001600090919290919091505550600760009054906101000a900473ffffffffffffffffffffffffffffffffffffffff1673ffffffffffffffffffffffffffffffffffffffff1663dd62ed3e83306040518363ffffffff167c0100000000000000000000000000000000000000000000000000000000028152600401808373ffffffffffffffffffffffffffffffffffffffff1673ffffffffffffffffffffffffffffffffffffffff1681526020018273ffffffffffffffffffffffffffffffffffffffff1673ffffffffffffffffffffffffffffffffffffffff1681526020019250505060206040518083038186803b158015610ae157600080fd5b505afa158015610af5573d6000803e3d6000fd5b505050506040513d6020811015610b0b57600080fd5b8101908080519060200190929190505050841115610bf6578473ffffffffffffffffffffffffffffffffffffffff168273ffffffffffffffffffffffffffffffffffffffff167fbf182be802245e8ed88e4b8d3e4344c0863dd2a70334f089fd07265389306fcf866040518082815260200191505060405180910390a36040517f08c379a000000000000000000000000000000000000000000000000000000000815260040180806020018281038252600a8152602001807f53696e20666f6e646f730000000000000000000000000000000000000000000081525060200191505060405180910390fd5b600760009054906101000a900473ffffffffffffffffffffffffffffffffffffffff1673ffffffffffffffffffffffffffffffffffffffff166323b872dd8387876040518463ffffffff167c0100000000000000000000000000000000000000000000000000000000028152600401808473ffffffffffffffffffffffffffffffffffffffff1673ffffffffffffffffffffffffffffffffffffffff1681526020018373ffffffffffffffffffffffffffffffffffffffff1673ffffffffffffffffffffffffffffffffffffffff1681526020018281526020019350505050602060405180830381600087803b158015610cef57600080fd5b505af1158015610d03573d6000803e3d6000fd5b505050506040513d6020811015610d1957600080fd5b8101908080519060200190929190505050506000600460018303815481101515610d3f57fe5b906000526020600020906004020160030160006101000a81548160ff0219169083151502179055508473ffffffffffffffffffffffffffffffffffffffff168273ffffffffffffffffffffffffffffffffffffffff167fd6d3eb25a413c05d8107fc49deb2789bef7f612582b2482804c0b0423b6638ee866040518082815260200191505060405180910390a3505050505050565b6000610dde611171565b1515610de957600080fd5b6006600083815260200190815260200160002060006101000a81549073ffffffffffffffffffffffffffffffffffffffff021916905560019050919050565b610e3133610ed7565b1515610e3c57600080fd5b600260009054906101000a900460ff161515610e5757600080fd5b6000600260006101000a81548160ff0219169083151502179055507f5db9ee0a495bf2e6ff9c91a7834c1ba4fdd244a5e8aa4e537bd38aeae4b073aa33604051808273ffffffffffffffffffffffffffffffffffffffff1673ffffffffffffffffffffffffffffffffffffffff16815260200191505060405180910390a1565b6000610eed82600161136d90919063ffffffff16565b9050919050565b610efc611171565b1515610f0757600080fd5b600260009054906101000a900460ff16151515610f2357600080fd5b8073ffffffffffffffffffffffffffffffffffffffff166108fc3073ffffffffffffffffffffffffffffffffffffffff16319081150290604051600060405180830381858888f19350505050158015610f80573d6000803e3d6000fd5b5050565b6000600260009054906101000a900460ff16905090565b610fa433611401565b565b610fae611171565b1515610fb957600080fd5b600073ffffffffffffffffffffffffffffffffffffffff166000809054906101000a900473ffffffffffffffffffffffffffffffffffffffff1673ffffffffffffffffffffffffffffffffffffffff167f8be0079c531659141344cd1fd0a4f28419497f9722a3daafe3b4186f6b6457e060405160405180910390a360008060006101000a81548173ffffffffffffffffffffffffffffffffffffffff021916908373ffffffffffffffffffffffffffffffffffffffff160217905550565b61108133610ed7565b151561108c57600080fd5b6110958161145b565b50565b6110a133610ed7565b15156110ac57600080fd5b600260009054906101000a900460ff161515156110c857600080fd5b6001600260006101000a81548160ff0219169083151502179055507f62e78cea01bee320cd4e420270b5ea74000d11b0c9f74754ebdbfc544b05a25833604051808273ffffffffffffffffffffffffffffffffffffffff1673ffffffffffffffffffffffffffffffffffffffff16815260200191505060405180910390a1565b60008060009054906101000a900473ffffffffffffffffffffffffffffffffffffffff16905090565b60008060009054906101000a900473ffffffffffffffffffffffffffffffffffffffff1673ffffffffffffffffffffffffffffffffffffffff163373ffffffffffffffffffffffffffffffffffffffff1614905090565b60066020528060005260406000206000915054906101000a900473ffffffffffffffffffffffffffffffffffffffff1681565b60048181548110151561120a57fe5b90600052602060002090600402016000915090508060000160009054906101000a900473ffffffffffffffffffffffffffffffffffffffff16908060010160009054906101000a900473ffffffffffffffffffffffffffffffffffffffff16908060020154908060030160009054906101000a900460ff16905084565b6000611291611171565b151561129c57600080fd5b816006600085815260200190815260200160002060006101000a81548173ffffffffffffffffffffffffffffffffffffffff021916908373ffffffffffffffffffffffffffffffffffffffff1602179055506001905092915050565b600560009054906101000a900473ffffffffffffffffffffffffffffffffffffffff1681565b60036020528160005260406000208181548110151561133957fe5b90600052602060002001600091509150505481565b611356611171565b151561136157600080fd5b61136a816114b5565b50565b60008073ffffffffffffffffffffffffffffffffffffffff168273ffffffffffffffffffffffffffffffffffffffff16141515156113aa57600080fd5b8260000160008373ffffffffffffffffffffffffffffffffffffffff1673ffffffffffffffffffffffffffffffffffffffff16815260200190815260200160002060009054906101000a900460ff16905092915050565b6114158160016115af90919063ffffffff16565b8073ffffffffffffffffffffffffffffffffffffffff167fcd265ebaf09df2871cc7bd4133404a235ba12eff2041bb89d9c714a2621c7c7e60405160405180910390a250565b61146f81600161165e90919063ffffffff16565b8073ffffffffffffffffffffffffffffffffffffffff167f6719d08c1888103bea251a4ed56406bd0c3e69723c8a1686e017e7bbe159b6f860405160405180910390a250565b600073ffffffffffffffffffffffffffffffffffffffff168173ffffffffffffffffffffffffffffffffffffffff16141515156114f157600080fd5b8073ffffffffffffffffffffffffffffffffffffffff166000809054906101000a900473ffffffffffffffffffffffffffffffffffffffff1673ffffffffffffffffffffffffffffffffffffffff167f8be0079c531659141344cd1fd0a4f28419497f9722a3daafe3b4186f6b6457e060405160405180910390a3806000806101000a81548173ffffffffffffffffffffffffffffffffffffffff021916908373ffffffffffffffffffffffffffffffffffffffff16021790555050565b600073ffffffffffffffffffffffffffffffffffffffff168173ffffffffffffffffffffffffffffffffffffffff16141515156115eb57600080fd5b6115f5828261136d565b151561160057600080fd5b60008260000160008373ffffffffffffffffffffffffffffffffffffffff1673ffffffffffffffffffffffffffffffffffffffff16815260200190815260200160002060006101000a81548160ff0219169083151502179055505050565b600073ffffffffffffffffffffffffffffffffffffffff168173ffffffffffffffffffffffffffffffffffffffff161415151561169a57600080fd5b6116a4828261136d565b1515156116b057600080fd5b60018260000160008373ffffffffffffffffffffffffffffffffffffffff1673ffffffffffffffffffffffffffffffffffffffff16815260200190815260200160002060006101000a81548160ff021916908315150217905550505056fea165627a7a72305820900ab0cd6f1bf8a11d2053ab44fc16317e4d10147abd8443b4c50a37284e5c020029",
  "source": "pragma solidity ^0.5.0;  \n  \nimport \"../node_modules/openzeppelin-solidity/contracts/token/ERC20/ERC20.sol\";  \nimport \"../node_modules/openzeppelin-solidity/contracts/lifecycle/Pausable.sol\"; \nimport \"../node_modules/openzeppelin-solidity/contracts/ownership/Ownable.sol\"; \n  \ncontract TokenZendR is Ownable, Pausable {  \n  \n    /**  \n    * @dev Details of each transfer * @param contract_ contract address of ER20 token to transfer * @param to_ receiving account * @param amount_ number of tokens to transfer to_ account * @param failed_ if transfer was successful or not */  \n    struct Transfer {  \n        address contract_;  \n        address to_;  \n        uint amount_;  \n        bool failed_;  \n    }  \n\n    /**  \n    * @dev a mapping from transaction ID's to the sender address \n    * that initiates them. Owners can create several transactions */  \n    mapping(address => uint[]) public transactionIndexesToSender;  \n  \n  \n    /**  \n    * @dev a list of all transfers successful or unsuccessful */  \n    Transfer[] public transactions;  \n    \n    address public _owner;  \n  \n    /**  \n    * @dev list of all supported tokens for transfer \n    * @param string token symbol \n    * @param address contract address of token */  \n    mapping(bytes32 => address) public tokens;  \n    \n    ERC20 public ERC20Interface;  \n  \n    /**  \n    * @dev Event to notify if transfer successful or failed \n    * after account approval verified */  \n    event TransferSuccessful(address indexed from_, address indexed to_, uint256 amount_);  \n    \n    event TransferFailed(address indexed from_, address indexed to_, uint256 amount_);  \n    \n    constructor() public {  \n        _owner = msg.sender;  \n    }  \n\n    /**  \n    * @dev add address of token to list of supported tokens using \n    * token symbol as identifier in mapping */  \n    function addNewToken(bytes32 symbol_, address address_) public onlyOwner returns (bool) {  \n        tokens[symbol_] = address_;  \n        \n        return true;  \n    }  \n\n    /**  \n    * @dev remove address of token we no more support */  \n    function removeToken(bytes32 symbol_) public onlyOwner returns (bool) {  \n        //require(tokens[symbol_] != '0x0', \"Debe especificar el simbolo del token\");  \n        \n        delete(tokens[symbol_]);  \n        \n        return true;  \n    }  \n\n    /**  \n    * @dev method that handles transfer of ERC20 tokens to other address \n    * it assumes the calling address has approved this contract \n    * as spender \n    * @param symbol_ identifier mapping to a token contract address \n    * @param to_ beneficiary address \n    * @param amount_ numbers of token to transfer */  \n    function transferTokens(bytes32 symbol_, address to_, uint256 amount_) public whenNotPaused{  \n        //require(tokens[symbol_] != 0x0, \"Debe especificar el simbolo del token\");  \n        require(amount_ > 0, \"Debe transferir una cantidad mayor a cero\");  \n        \n        address contract_ = tokens[symbol_];  \n        address from_ = msg.sender;  \n        \n        ERC20Interface = ERC20(contract_);  \n        \n        uint256 transactionId = transactions.push(  \n            Transfer(\n                {contract_:contract_,\n                to_:to_,  \n                amount_:amount_,  \n                failed_:true  \n                }\n            ) \n        );  \n        transactionIndexesToSender[from_].push(transactionId - 1);  \n        \n        if(amount_ > ERC20Interface.allowance(from_, address(this))) {  \n            emit TransferFailed(from_, to_, amount_);  \n            revert(\"Sin fondos\");  \n        }  \n        ERC20Interface.transferFrom(from_, to_, amount_);  \n        \n        transactions[transactionId - 1].failed_ = false;  \n        \n        emit TransferSuccessful(from_, to_, amount_);  \n    }  \n\n    /**  \n    * @dev allow contract to receive funds */  \n    function() external payable {}  \n  \n    /**  \n    * @dev withdraw funds from this contract \n    * @param beneficiary address to receive ether */  \n    function withdraw(address payable beneficiary) public payable onlyOwner whenNotPaused {  \n        beneficiary.transfer(address(this).balance);  \n    }\n}",
  "sourcePath": "/Users/garvazsof/Projects/TTPToken/contracts/GestionATokens.sol",
  "compiler": {
    "name": "solc",
    "version": "0.5.0+commit.1d4f565a.Emscripten.clang"
  },
  "schemaVersion": "3.0.1",
  "updatedAt": "2019-01-08T15:57:07.744Z",
  "devdoc": {
    "methods": {
      "addNewToken(bytes32,address)": {
        "details": "add address of token to list of supported tokens using  token symbol as identifier in mapping "
      },
      "isOwner()": {
        "return": "true if `msg.sender` is the owner of the contract."
      },
      "owner()": {
        "return": "the address of the owner."
      },
      "pause()": {
        "details": "called by the owner to pause, triggers stopped state"
      },
      "paused()": {
        "return": "true if the contract is paused, false otherwise."
      },
      "removeToken(bytes32)": {
        "details": "remove address of token we no more support "
      },
      "renounceOwnership()": {
        "details": "Allows the current owner to relinquish control of the contract."
      },
      "transferOwnership(address)": {
        "details": "Allows the current owner to transfer control of the contract to a newOwner.",
        "params": {
          "newOwner": "The address to transfer ownership to."
        }
      },
      "transferTokens(bytes32,address,uint256)": {
        "details": "method that handles transfer of ERC20 tokens to other address  it assumes the calling address has approved this contract  as spender ",
        "params": {
          "amount_": "numbers of token to transfer ",
          "symbol_": "identifier mapping to a token contract address ",
          "to_": "beneficiary address "
        }
      },
      "unpause()": {
        "details": "called by the owner to unpause, returns to normal state"
      },
      "withdraw(address)": {
        "details": "withdraw funds from this contract ",
        "params": {
          "beneficiary": "address to receive ether "
        }
      }
    }
  },
  "userdoc": {
    "methods": {
      "renounceOwnership()": {
        "notice": "Renouncing to ownership will leave the contract without an owner. It will not be possible to call the functions with the `onlyOwner` modifier anymore."
      }
    }
  }
}