{
  "contractName": "Transacciones",
  "abi": [
    {
      "constant": false,
      "inputs": [
        {
          "name": "_mensaje",
          "type": "bytes32"
        },
        {
          "name": "_address",
          "type": "address"
        }
      ],
      "name": "recordTransaccion",
      "outputs": [
        {
          "name": "result",
          "type": "bool"
        }
      ],
      "payable": false,
      "stateMutability": "nonpayable",
      "type": "function"
    },
    {
      "constant": true,
      "inputs": [
        {
          "name": "_address",
          "type": "address"
        }
      ],
      "name": "getTransactions",
      "outputs": [
        {
          "name": "mRegistrosLs",
          "type": "bytes32[]"
        }
      ],
      "payable": false,
      "stateMutability": "view",
      "type": "function"
    }
  ],
  "bytecode": "0x608060405234801561001057600080fd5b506102f2806100206000396000f3fe60806040526004361061004c576000357c0100000000000000000000000000000000000000000000000000000000900463ffffffff1680630f8cda2014610051578063b34423bb146100f7575b600080fd5b34801561005d57600080fd5b506100a06004803603602081101561007457600080fd5b81019080803573ffffffffffffffffffffffffffffffffffffffff16906020019092919050505061016a565b6040518080602001828103825283818151815260200191508051906020019060200280838360005b838110156100e35780820151818401526020810190506100c8565b505050509050019250505060405180910390f35b34801561010357600080fd5b506101506004803603604081101561011a57600080fd5b8101908080359060200190929190803573ffffffffffffffffffffffffffffffffffffffff169060200190929190505050610205565b604051808215151515815260200191505060405180910390f35b6060806000808473ffffffffffffffffffffffffffffffffffffffff1673ffffffffffffffffffffffffffffffffffffffff1681526020019081526020016000208054806020026020016040519081016040528092919081815260200182805480156101f557602002820191906000526020600020905b8154815260200190600101908083116101e1575b5050505050905080915050919050565b6000806000808473ffffffffffffffffffffffffffffffffffffffff1673ffffffffffffffffffffffffffffffffffffffff1681526020019081526020016000209050808490806001815401808255809150509060018203906000526020600020016000909192909190915055508080549050600160008573ffffffffffffffffffffffffffffffffffffffff1673ffffffffffffffffffffffffffffffffffffffff1681526020019081526020016000208190555060019150509291505056fea165627a7a7230582048e46059c521ce691a5be2d0a923ae359e94892fe97621b4b72fe06fada27d9b0029",
  "source": "pragma solidity ^0.5.0;\n\ncontract Transacciones{\n    \n    mapping(address => bytes32[]) mRegistros;\n    mapping(address => uint) mRegistrosI;\n    \n    \n    function recordTransaccion(bytes32 _mensaje, address _address) public returns (bool result) {\n        \n        bytes32[] storage txsls = mRegistros[_address];\n        \n        txsls.push(_mensaje);\n        mRegistrosI[_address] = txsls.length;\n        \n        return true;\n    }\n    \n    function getTransactions(address _address) public view returns(bytes32[] memory mRegistrosLs){\n        bytes32[] memory txsls = mRegistros[_address];\n        \n        return txsls;\n    }\n    \n    function stringToBytes32(string memory source) internal pure returns (bytes32 result) {\n        bytes memory tempEmptyStringTest = bytes(source);\n        if (tempEmptyStringTest.length == 0) {\n            return 0x0;\n        }\n    \n        assembly {\n            result := mload(add(source, 32))\n        }\n    }\n    \n}",
  "sourcePath": "/Users/garvazsof/Projects/TTPToken/contracts/Transacciones.sol",
  "compiler": {
    "name": "solc",
    "version": "0.5.0+commit.1d4f565a.Emscripten.clang"
  },
  "schemaVersion": "3.0.1",
  "updatedAt": "2019-01-10T19:41:15.035Z",
  "devdoc": {
    "methods": {}
  },
  "userdoc": {
    "methods": {}
  }
}